:100000000C94BE020C94E6020C94E6020C94E602F8
:100010000C94E6020C94E6020C94E6020C94E602C0
:100020000C94E6020C94E6020C94E6020C94E602B0
:100030000C94E6020C94E6020C94E6020C94E602A0
:100040000C941D180C94E6020C948D180C946718EF
:100050000C94E6020C94E6020C94E6020C94E60280
:100060000C94FE160C94E60208000000BE9224498F
:10007000123EABAAAA2ABECDCCCC4C3E00000080DA
:10008000BEABAAAAAA3E00000000BF000000803F4D
:100090000000000000084178D3BB4387D1133D190D
:1000A0000E3CC3BD4282AD2B3E68EC8276BED98F3A
:1000B000E1A93E4C80EFFFBE01C4FF7F3F0000007E
:1000C00000004175746F50494420636C69636B0094
:1000D0000000000023002600290020E28692002074
:1000E000E286980020E286970020E29AA000202075
:1000F00074616E3A200020206970436F756E743A07
:10010000200020206970436F756E743A2000202013
:100110007076506B436F756E743A200020207076B5
:10012000506B3A2000202070763A200020206F7516
:10013000743A2000207365633A2000202054643A0A
:10014000200020204B643A2000202054693A2000EF
:1001500020204B693A200020204B703A20004D6946
:100160007865645F504900436F68656E436F6F6EDA
:100170005F5049004E6F4F76657273686F6F745FA2
:1001800050490044616D7065645F5049005A4E5F8C
:100190005049004D697865645F50494400436F6879
:1001A000656E436F6F6E5F504944004E6F4F7665CA
:1001B0007273686F6F745F5049440044616D70657D
:1001C000645F504944005A4E5F50494400205475C2
:1001D0006E696E67204D6574686F643A2000202850
:1001E0006C6F772073616D706C6520726174652926
:1001F000002028676F6F642073616D706C652072DA
:100200006174652900205461752F53616D706C65B0
:1002100020506572696F643A200020286469666620
:100220006963756C7420746F20636F6E74726F6C89
:10023000290020286176657261676520636F6E749E
:10024000726F6C6C6162696C697479290020286531
:1002500061737920746F20636F6E74726F6C290004
:10026000205461752F446561642054696D653A209E
:10027000202020200020546175205365633A2020FF
:1002800020202020202020202000204465616420A0
:1002900054696D65205365633A202020202000209A
:1002A00050726F63657373204761696E3A20202036
:1002B0002020200020507620446966663A202020C5
:1002C000202020202020202000205076204D696E04
:1002D0003A202020202020202020202020002050F4
:1002E00076204D61783A20202020202020202020D8
:1002F0002020002050762053746172743A20202010
:1003000020202020202020002049702050763A20F4
:100310002020202020202020202020200020E286D5
:10032000930020E286910020497020536C6F706525
:100330003A2020202020202020202000204970204A
:100340005365633A202020202020202020202020D8
:10035000002053616D706C65205365633A20202046
:10036000202020202000204F757470757420537455
:1003700065703A2020202020202000204F757470C6
:1003800075742053746172743A202020202020005C
:100390007265766572736535540072657665727341
:1003A000654950006469726563743554006469720C
:1003B00065637449500020436F6E74726F6C6C6596
:1003C0007220416374696F6E3A20002041424F529F
:1003D000543A207076496E7374203E206553746FD2
:1003E00070002020736574746C696E672020E2A42D
:1003F000B3E2A4B300202070763A200020206F756D
:10040000743A2000207365633A20002041424F5225
:10041000543A207076496E7374203E206553746F91
:1004200070006B642E2E2E3A200020006B692E2E59
:100430002E3A200020006B702E2E2E3A2000200035
:100440004144432E2E2E3A200020006F75747075A3
:10045000742E2E2E3A20002000696E7075742E2E98
:100460002E3A20002000736574706F696E742E2E12
:100470002E3A20006B642E2E3A200020006B692E4D
:100480002E3A200020006B702E2E3A2000200041D2
:1004900044432E2E3A200020006F75747075742E20
:1004A0002E3A20002000696E7075742E2E3A2000BE
:1004B0002000736574706F696E742E2E3A20006B85
:1004C000642E3A200020006B692E3A200020006B39
:1004D000702E3A200020004144432E3A2000200094
:1004E0006F75747075742E3A20002000696E7075F7
:1004F000742E3A200074756E696E67206D6F6465A6
:100500000074756E696E6720736574207061726126
:100510006D65746572730020432C200054656D7006
:10052000657261747572653A200000000000240055
:1005300027002A0000000000250028002B000404EA
:10054000040404040404020202020202030303037B
:100550000303010204081020408001020408102057
:10056000010204081020000000080002010000033E
:1005700004070000000000000000441911241FBE01
:10058000CFEFD8E0DEBFCDBF11E0A0E0B1E0EAE7F9
:10059000F4E602C005900D92A23EB107D9F726E01D
:1005A000A2EEB1E001C01D92AB3CB207E1F712E050
:1005B000CEEBD2E004C02197FE010E942A2ECD3B53
:1005C000D107C9F70E94A61B0C943B320C94000083
:1005D000FC0160831182615062838FEF838381E02D
:1005E000848382E085831682148E16861586178A88
:1005F000108A1786108E128A118A118E148A138A15
:10060000128E168A158A138E10861782128611860C
:100610001486138608954F925F926F927F928F9205
:100620009F92AF92BF92CF92DF92EF92FF920F9381
:100630001F93CF93DF9300D000D0CDB7DEB72B014F
:100640003C0149015A016701780120E030E0A9012D
:100650000E94AC2E87FD75C020E030E0A901C501E5
:10066000B4010E94AC2E87FD6CC020E030E0A901EF
:10067000C801B6010E94AC2E87FD63C020E030E0C7
:10068000A901C501B4010E94AC2E811108C01092CD
:100690001D0410921E0410921F0410922004409218
:1006A00021045092220460922304709224048092C8
:1006B000250490922604A0922704B0922804C092A8
:1006C0002904D0922A04E0922B04F0922C04609129
:1006D00050047091510480915204909153040E94EF
:1006E000592F20E034E244E759E40E94B12E698397
:1006F0007A838B839C834092390450923A046092AF
:100700003B0470923C049B01AC01C501B4010E9402
:10071000603060933D0470933E0480933F04909357
:10072000400429813A814B815C81C701B6010E9456
:10073000B12E6093410470934204809343049093DC
:1007400044040F900F900F900F90DF91CF911F9165
:100750000F91FF90EF90DF90CF90BF90AF909F9060
:100760008F907F906F905F904F9008954F925F921F
:100770006F927F928F929F92AF92BF92CF92DF92B1
:10078000EF92FF92CF938090DB039090DC03A090D8
:10079000DD03B090DE0320E030E040E05FE3C50120
:1007A000B4010E9460309B01AC0160E070E080E821
:1007B0009FE30E94B12E6B017C01C0917603C111B1
:1007C00009C0C092CF03D092D003E092D103F0923F
:1007D000D20322C020E030E040E151E46091D70331
:1007E0007091D8038091D9039091DA030E94B12EC1
:1007F0009B01AC0160E070E080E89FE30E94B12EB5
:100800002B013C01C130F1F44092CF035092D00350
:100810006092D1037092D2036091CF037091D003A4
:100820008091D1039091D203CF91FF90EF90DF9010
:10083000CF90BF90AF909F908F907F906F905F9080
:100840004F900895C23009F4BCCF20E030E040E87A
:1008500050E4C501B4010E9460304B015C0160911D
:10086000DF037091E0038091E1039091E2039B012B
:10087000AC010E94402E20E030E040E351E40E94B1
:10088000402E9B01AC01C501B4010E94B12E9B0119
:10089000AC0160E070E080E89FE30E94B12E4B0164
:1008A0005C01C33049F48092CF039092D003A092B0
:1008B000D103B092D203B0CFC430E9F4A3019201C6
:1008C000C701B6010E94402EA70196010E94402E4A
:1008D000A50194010E94402E20E030E040E85EE354
:1008E0000E9460306093CF037093D0038093D10354
:1008F0009093D20391CF1092CF031092D003109215
:10090000D1031092D20388CF4F925F926F927F9261
:100910008F929F92AF92BF92CF92DF92EF92FF920F
:10092000CF93DF93CDB7DEB761970FB6F894DEBFF4
:100930000FBECDBF8090DB039090DC03A090DD0361
:10094000B090DE03A5019401C501B4010E94402EC0
:100950009B01AC0160E070E080E89FE30E94B12E53
:100960002B013C0180917603898B811109C0409253
:10097000CB035092CC036092CD037092CE032FC074
:100980008091D7039091D803A091D903B091DA0355
:1009900089839A83AB83BC8326E636E646E650E439
:1009A000BC01CD010E94B12E9B01AC0160E070E062
:1009B00080E89FE30E94B12E6D837E838F839887AA
:1009C0009989913049F58D819E81AF81B885809359
:1009D000CB039093CC03A093CD03B093CE0360914F
:1009E000CB037091CC038091CD039091CE0361969F
:1009F0000FB6F894DEBF0FBECDBFDF91CF91FF9051
:100A0000EF90DF90CF90BF90AF909F908F907F90AE
:100A10006F905F904F90089529813A814B815C815E
:100A200060E070E080E89FE30E94B12E69877A87DA
:100A30008B879C879989923029F489859A85AB8523
:100A4000BC85C5CFC090DF03D090E003E090E10308
:100A5000F090E20320E030E040E450E4C701B6014A
:100A60000E94603020E030E040EF51E40E94402ED0
:100A7000A50194010E9460306D877E878F87988BD7
:100A800020E030E040EA51E4C701B6010E94603046
:100A900020E030E040E151E40E94402E9B01AC0197
:100AA0006D857E858F8598890E94B12E9B01AC0152
:100AB00060E070E080E89FE30E94B12E6B017C0152
:100AC0009989933049F4C092CB03D092CC03E09241
:100AD000CD03F092CE0383CFA989A43009F52D81EF
:100AE0003E814F815885C301B2010E94402E298565
:100AF0003A854B855C850E94402EA70196010E9495
:100B0000402E20E030E040E85EE30E9460306093D9
:100B1000CB037093CC038093CD039093CE035FCF30
:100B20002AEC34E545E550E4C501B4010E9460308B
:100B30009B01AC0160E070E080E89FE30E94B12E71
:100B40004B015C01B989B53049F48092CB03909296
:100B5000CC03A092CD03B092CE0341CF26E636E679
:100B600046E250E469817A818B819C810E94B12E9A
:100B70009B01AC0160E070E080E89FE30E94B12E31
:100B80002B013C018989863009F4F1CE2AE939E943
:100B900049E95FE369817A818B819C810E946030A1
:100BA0009B01AC0160E070E080E89FE30E94B12E01
:100BB00069837A838B839C839989973029F489810F
:100BC0009A81AB81BC8103CF9989983009F47BCF9E
:100BD000A3019201C501B4010E94402E29813A81EE
:100BE0004B815C8188CF4F925F926F927F928F9200
:100BF0009F92AF92BF92CF92DF92EF92FF92CF93EC
:100C0000DF93CDB7DEB769970FB6F894DEBF0FBE9E
:100C1000CDBFC090D703D090D803E090D903F09017
:100C2000DA038091D3039091D403A091D503B091BE
:100C3000D60389839A83AB83BC838090DB03909037
:100C4000DC03A090DD03B090DE03A5019401BC019C
:100C5000CD010E9460302B013C012AE939E949E9C4
:100C60005FE3C701B6010E946030A30192010E94B8
:100C7000B12E20E030E040E05FE30E946030698701
:100C80007A878B879C8790917603998F911129C0E1
:100C900089859A85AB85BC858093C7039093C803EB
:100CA000A093C903B093CA036091C7037091C803AE
:100CB0008091C9039091CA0369960FB6F894DEBF7C
:100CC0000FBECDBFDF91CF91FF90EF90DF90CF901F
:100CD000BF90AF909F908F907F906F905F904F905C
:100CE000089523EC35EF48E25FE3C701B6010E94A7
:100CF0006030A30192010E94B12E6D877E878F879D
:100D0000988B998D913029F48D859E85AF85B88912
:100D1000C3CFA5019401C701B6010E94B12E698B12
:100D20007A8B8B8B9C8B29813A814B815C816AE920
:100D300079E989E19FE30E94B12E29893A894B899B
:100D40005C890E9460306D8B7E8B8F8B988F998D24
:100D5000923029F48D899E89AF89B88D9DCF80917D
:100D6000DF039091E003A091E103B091E2038D8352
:100D70009E83AF83B88720E030E040E85EE3BC01AB
:100D8000CD010E94603021E73DE34AEA5FE30E9423
:100D9000402E29813A814B815C810E9460304B0159
:100DA0005C01998D933049F48092C7039092C803F7
:100DB000A092C903B092CA0377CFA98DA430D9F409
:100DC0002D853E854F85588969857A858B859C85DB
:100DD0000E94402E2D893E894F89588D0E94402EB9
:100DE000A50194010E94402E20E030E040E85EE33F
:100DF0000E9460306CC026E636E646E65FE3C70137
:100E0000B6010E946030A30192010E94B12E20E041
:100E100030E040E05FE30E9460304B015C01B98D3F
:100E2000B53011F224EA30E74DEF5EE3C701B601B9
:100E30000E946030A30192010E94B12E2B013C015F
:100E4000898D863049F44092C7035092C80360925E
:100E5000C9037092CA0328CF29813A814B815C81F2
:100E600063E373E383EB9EE30E94B12E29893A8901
:100E70004B895C890E9460306B017C01998D9730B1
:100E800049F4C092C703D092C803E092C903F0921C
:100E9000CA030ACF20E030E040E451E46D817E8156
:100EA0008F8198850E94B12E26E636E646E65FE3FE
:100EB0000E94402E29813A814B815C810E946030E2
:100EC00069837A838B839C83A98DA83049F46093CE
:100ED000C7037093C8038093C9039093CA03E4CEF9
:100EE000A3019201C501B4010E94402EA701960101
:100EF0000E94402E29813A814B815C8173CFCF9231
:100F0000DF92EF92FF920F931F93CF93DF93E091C5
:100F10004704F0914804C080D180E280F380C6018C
:100F2000D70180931D0490931E04A0931F04B093D7
:100F30002004E0914504F091460480819181A281D2
:100F4000B3818093680490936904A0936A04B0937A
:100F50006B040091580410915904D0915A04C09127
:100F60005B0498014D2F5C2FB601C7010E94AC2E87
:100F700087FD14C000915C0410915D04D0915E0463
:100F8000C0915F0498014D2F5C2FB601C7010E94EC
:100F90000B3018161CF08601DE2DCF2DC801AD2FA9
:100FA000BC2F80931D0490931E04A0931F04B09344
:100FB0002004DF91CF911F910F91FF90EF90DF9070
:100FC000CF9008959C0190917A04963068F4E92FAF
:100FD000F0E0EE0FFF1FE259FB4F318320839F5F4C
:100FE00090937A0481E0089580E0089520917C0236
:100FF000260F3327331F21323105ECF42091A20252
:10100000FC0190E080E0243069F082E00895A09136
:101010007C022191AC01465A5D4FA40FB52FB11D42
:101020002C930196861798F380917C02680F609349
:101030007C0280E0089581E0089508950895089560
:10104000E091510280915002E81730F4F0E0E05D49
:10105000FD4F808190E008958FEF9FEF089590916C
:101060005102809150022FEF3FEF981748F4E92F7B
:10107000F0E0E05DFD4F208130E09F5F90935102F2
:10108000C90108958091500290915102891B990BDA
:101090000895CF92DF92EF92FF920F931F93CF9319
:1010A000DF937C01CB018A0120912F02222389F05A
:1010B000EB016B01C40ED51ECC15DD0569F06991FD
:1010C000D701ED91FC910190F081E02DC7010995C8
:1010D000F3CF642F0E94F607C801DF91CF911F91D3
:1010E0000F91FF90EF90DF90CF900895CF93DF9313
:1010F0001F92CDB7DEB7698320912F022223F9F02A
:1011000020915202203258F021E030E0FC0133837C
:10111000228390E080E00F90DF91CF91089580913D
:101120005302E82FF0E0E15FFD4F998190838F5FDC
:10113000809353028093520281E090E0ECCF61E013
:10114000CE0101960E94F607F7CF833081F028F494
:10115000813099F08230A9F008958730A9F0883065
:10116000C9F08430B1F4809180008F7D03C08091FC
:1011700080008F7780938000089584B58F7784BD39
:10118000089584B58F7DFBCF8091B0008F778093D9
:10119000B00008958091B0008F7DF9CF1F93CF9359
:1011A000DF93282F30E0F901EA59FA4F8491F901D1
:1011B000EE5AFA4FD491F901E25CFA4FC491CC2374
:1011C000A9F0162F81110E94A508EC2FF0E0EE0F78
:1011D000FF1FEC5CFA4FA591B4918FB7F894EC9196
:1011E000111108C0D095DE23DC938FBFDF91CF9122
:1011F0001F910895DE2BF8CF1092A20281E0809318
:10120000A4021092A30261E082E10E94CE0861E094
:1012100083E10E94CE08E9EBF0E080818E7F80833D
:1012200080818D7F808388E48093B80085E48093FB
:10123000BC000895CF93DF9391E0909359028823E7
:10124000B9F0C091B800D091BA008091BC008A7BFF
:101250008093BC0060E082E10E94CE0860E083E100
:101260000E94CE080E94FC08D093BA00C093B80038
:10127000DF91CF910895CF93DF9390E0FC01EE5A78
:10128000FA4F2491825C9A4FFC0184918823C9F023
:1012900090E0880F991FFC01E65DFA4FA591B4918B
:1012A000FC01EC5CFA4FC591D49161110DC09FB760
:1012B000F8948C91209582238C938881282328830D
:1012C0009FBFDF91CF910895623051F49FB7F8949A
:1012D0003C91822F809583238C93E8812E2BEFCF36
:1012E0008FB7F894EC912E2B2C938FBFEACF1F93DE
:1012F000CF93DF93182FEB0161E00E943B09209709
:1013000039F460E0812FDF91CF911F910C94CE08CA
:10131000CF3FD10511F461E0F5CFE12FF0E0EA59BC
:10132000FA4FE491E33031F140F4E130B1F0E230D2
:10133000E1F0C038D1057CF7E4CFE73029F1E8309F
:1013400059F1E430B1F78091800080628093800091
:10135000D0938B00C0938A0004C084B5806884BD9C
:10136000C7BDDF91CF911F91089584B5806284BD80
:10137000C8BDF7CF80918000806880938000D093B3
:101380008900C0938800EDCF8091B0008068809381
:10139000B000C093B300E5CF8091B000806280932D
:1013A000B000C093B400DDCF8E3008F08E5087704F
:1013B000806480937C0080917A00806480937A00BE
:1013C00080917A0086FDFCCF809178009091790021
:1013D00008953FB7F89480910B0290910C02A09170
:1013E0000D02B0910E0226B5A89B05C02F3F19F043
:1013F0000196A11DB11D3FBFBA2FA92F982F882795
:10140000BC01CD01620F711D811D911D42E0660F6F
:10141000771F881F991F4A95D1F70895CF93DF93BF
:10142000C3E7D3E081E08A838C8D9D8DAE8DBF8D27
:10143000EE81FF8180839183A283B3830E94E909B7
:101440006093FD037093FE038093FF039093000469
:101450006093010470930204809303049093040446
:1014600010920D0410920E0410920F0410921004AA
:101470001092090410920A0410920B0410920C04AA
:101480001092D3031092D4031092D5031092D60376
:101490001092D7031092D8031092D9031092DA0356
:1014A0001092DB031092DC031092DD031092DE0336
:1014B0001092C7031092C8031092C9031092CA0376
:1014C0001092CB031092CC031092CD031092CE0356
:1014D0001092CF031092D0031092D1031092D20336
:1014E00018AA19AA1AAA1BAA1CAA1DAA1EAA1FAAD0
:1014F00018AE19AE1AAE1BAE1092B7031092B80315
:101500001092B9031092BA031092BB031092BC035D
:101510001092BD031092BE031092BF031092C0033D
:101520001092C1031092C20388A599A5AAA5BBA5D4
:101530008CA79DA7AEA7BFA78093C3039093C403B6
:10154000A093C503B093C6038CAF9DAFAEAFBFAF42
:101550001092F0031092EF031092F2031092F10335
:101560001092EC031092EB031092EE031092ED0335
:10157000DF91CF9108958F929F92AF92BF92CF92B9
:10158000DF92EF92FF924B015C010E94E9096B012F
:101590007C010E94E9096C197D098E099F09683E4A
:1015A000734081059105A8F321E0821A9108A108F2
:1015B000B10888EEC80E83E0D81EE11CF11C81142E
:1015C0009104A104B10429F7FF90EF90DF90CF9030
:1015D000BF90AF909F908F900895CF92DF92EF923F
:1015E000FF92C0903901D0903A01E0903B01F09019
:1015F0003C0120E030E041E953E4C701B6010E941C
:10160000AC2E87FF15C020E030E040E85FE3C70163
:10161000B6010E94402E6093390170933A01809385
:101620003B0190933C01FF90EF90DF90CF900895A5
:1016300080E090E0A1E9B3E48093390190933A010E
:10164000A0933B01B0933C01EECFCF92DF92EF929B
:10165000FF92C0903901D0903A01E0903B01F090A8
:101660003C0120E030E048EC51E4C701B6010E94A3
:101670000B301816ACF420E030E040E85FE3C7011F
:10168000B6010E943F2E6093390170933A01809316
:101690003B0190933C01FF90EF90DF90CF90089535
:1016A0001092390110923A0110923B0110923C01C4
:1016B000F2CF2AE037ED43E25CE3609121017091C3
:1016C000220180912301909124010E94402E609379
:1016D00021017093220180932301909324010895A6
:1016E000CF92DF92EF92FF92C0902101D090220121
:1016F000E0902301F09024012AE037ED43E25CE31F
:10170000C701B6010E940B3087FD15C02AE037EDF6
:1017100043E25CE3C701B6010E943F2E60932101C2
:10172000709322018093230190932401FF90EF9006
:10173000DF90CF9008951092210110922201109213
:10174000230110922401F2CF2AE037ED43E25CE35B
:1017500060911D0170911E0180911F0190912001E7
:101760000E94402E60931D0170931E0180931F0103
:10177000909320010895CF92DF92EF92FF92C09054
:101780001D01D0901E01E0901F01F09020012AE081
:1017900037ED43E25CE3C701B6010E940B3087FDE1
:1017A00015C02AE037ED43E25CE3C701B6010E94B1
:1017B0003F2E60931D0170931E0180931F01909333
:1017C0002001FF90EF90DF90CF90089510921D01BF
:1017D00010921E0110921F0110922001F2CF2AE0F8
:1017E00037ED43E25CE36091190170911A01809139
:1017F0001B0190911C010E94402E6093190170936F
:101800001A0180931B0190931C010895CF92DF92DF
:10181000EF92FF92C0901901D0901A01E0901B0145
:10182000F0901C012AE037ED43E25CE3C701B6010A
:101830000E940B3087FD15C02AE037ED43E25CE3E0
:10184000C701B6010E943F2E6093190170931A01DF
:1018500080931B0190931C01FF90EF90DF90CF903D
:1018600008951092190110921A0110921B01109202
:101870001C01F2CFDC01ED91FC910190F081E02D93
:101880000994AF92BF92CF92DF92EF92FF920F93A3
:101890001F93CF93DF936C017B018B01040F151F06
:1018A000EB015E01AE18BF08C017D10759F069916E
:1018B000D601ED91FC910190F081E02DC6010995D2
:1018C000892B79F7C501DF91CF911F910F91FF907F
:1018D000EF90DF90CF90BF90AF900895FC01538DB3
:1018E000448D252F30E0842F90E0821B930B5417FA
:1018F00010F0CF96089501970895FC01918D828D87
:10190000981761F0A28DAE0FBF2FB11D5D968C911F
:10191000928D9F5F9F73928F90E008958FEF9FEF5E
:101920000895FC01918D828D981731F0828DE80F1A
:10193000F11D858D90E008958FEF9FEF0895FC01D4
:10194000918D228D892F90E0805C9F4F821B9109A1
:101950008F739927089584ED92E00E949F0C21E0F7
:10196000892B09F420E0822F089580E090E0892BF4
:1019700029F00E94AB0C81110C9400000895FC0129
:10198000A48DA80FB92FB11DA35ABF4F2C91848DE0
:1019900090E001968F739927848FA689B7892C933D
:1019A000A089B1898C91837080648C93938D848D90
:1019B000981306C00288F389E02D80818F7D808393
:1019C0000895EF92FF920F931F93CF93DF93EC0153
:1019D00081E0888F9B8D8C8D98131AC0E889F989D6
:1019E000808185FF15C09FB7F894EE89FF896083D9
:1019F000E889F98980818370806480839FBF81E05A
:101A000090E0DF91CF911F910F91FF90EF9008959B
:101A1000F62E0B8D10E00F5F1F4F0F731127E02E76
:101A20008C8D8E110CC00FB607FCFACFE889F989AE
:101A3000808185FFF5CFCE010E94BF0CF1CFEB8DE9
:101A4000EC0FFD2FF11DE35AFF4FF0829FB7F89482
:101A50000B8FEA89FB8980818062CFCF0F931F9320
:101A6000CF93DF938C01D0E0C0E0F801EC0FFD1FB5
:101A70006491662341F084ED92E00E94E10C892B91
:101A800011F02196F2CFCE01DF91CF911F910F91EE
:101A90000895CF93DF93EC01888D8823B9F0AA894C
:101AA000BB89E889F9898C9185FD03C0808186FD19
:101AB0000DC00FB607FCF7CF8C9185FFF2CF808168
:101AC00085FFEDCFCE010E94BF0CE9CFDF91CF9112
:101AD0000895CF92DF92EF92FF920F931F93CF93CF
:101AE000DF93FC012081318137FD70C0EC01332789
:101AF000F901EA59FA4F8491F901EE5AFA4FF4903C
:101B0000F901E25CFA4F149130E020E0112399F0E2
:101B100081110E94A508E12FF0E0EE0FFF1FE053B6
:101B2000FF4FA591B491EC91FE2291E080E009F481
:101B300090E0292F382FE885F9858FB7F894C09069
:101B40000702D0900802E0900902F0900A028FBFCD
:101B50008AA99BA9ACA9BDA9B701A601481B590B2D
:101B60006A0B7B0B8EA59FA58230910509F473C08B
:101B700054F40097E1F08130910589F199AB88AB7D
:101B80001FA61EA623C08630910509F4C8C0873061
:101B9000910509F4E1C08330910581F7E217F3075D
:101BA00009F078C099AB88AB81E090E02FC0E217D4
:101BB000F30761F419AA18AA81E090E09FA78EA705
:101BC000CAAADBAAECAAFDAA1FAA1EAADF91CF917E
:101BD0001F910F91FF90EF90DF90CF900895E21743
:101BE000F307D9F00A811B8130E020E0401751074C
:101BF0006207730738F428A939A999AB88AB3FA7C6
:101C00002EA7E4CF99AB88AB82E090E09FA78EA788
:101C1000CAAADBAAECAAFDAAD9CF8E819F81B0E027
:101C2000A0E084179507A607B70780F6EC8DFD8D19
:101C3000309709F00995EE8DFF8D309719F088A146
:101C400099A109958EA59FA599AB88AB86E090E0F8
:101C50009FA78EA7BBCFCA80DB80F12CE12CE217B7
:101C6000F30789F44C155D056E057F0520F28EA9FA
:101C70009FA901969FAB8EAB82E090E099AB88ABB9
:101C800083E090E0E5CF4C155D056E057F0508F417
:101C90009DCFEDCF8EA99FA9CC80DD80F12CE12CCA
:101CA000C416D506E606F70630F028AD39AD28177C
:101CB000390709F08BCF81309105B9F4EA85FB85AE
:101CC000309709F00995EC85FD85309719F08E85E0
:101CD0009F8509951FA61EA619AA18AA1FAA1EAAA3
:101CE0001AAA1BAA1CAA1DAA71CF029761F4E8893F
:101CF000F989309709F00995EA89FB89309751F302
:101D00008C899D89E6CFEE89FF89309709F0099586
:101D1000E88DF98D3097F1F28A8D9B8DDACFE2173D
:101D2000F30729F099AB88AB87E090E06FCFE8A587
:101D3000F9A5309709F00995EAA5FBA5309709F4B4
:101D400045CF8CA59DA5DF91CF911F910F91FF905D
:101D5000EF90DF90CF900994CA80DB80F12CE12CCA
:101D6000E217F30799F44C155D056E057F0508F43D
:101D700042CFEAA1FBA1309709F00995ECA1FDA1A2
:101D8000309709F4A7CF8EA19FA1A3CF4C155D0575
:101D90006E057F0508F41ACFECCFCF92DF92EF9259
:101DA000FF920F931F93CF93DF93FC01C48121E037
:101DB00020932F02C093E20110925302109252021C
:101DC0008485682B88EC92E00E947608D0915202BC
:101DD000D13208F092C00E94E9096B017C01809128
:101DE000A202811165C082E08093A20281E080930B
:101DF000A4028FEF8093A1021092C602D093C50275
:101E0000AFE0B2E0E5EAF2E080E0D81385C01092DE
:101E1000C7028091C702CC0FC82BC093C702809124
:101E2000A302813009F07CC01092A3020E94E9094C
:101E30006B017C018091C7028093BB0080915502A9
:101E400090915602A0915702B0915802892B8A2B8B
:101E50008B2B99F00E94E9090091550210915602CE
:101E600020915702309158026C197D098E099F0903
:101E70000617170728073907E0F18091BC0083FD9A
:101E8000D9CF85EC8093BC000E94E9096B017C01ED
:101E90008091A202823009F445C08091A1028F3F57
:101EA00061F18091A102803241F18091A10225C0AF
:101EB0008091550290915602A0915702B09158021C
:101EC000892B8A2B8B2B09F48ACF0E94E909009178
:101ED00055021091560220915702309158026C1908
:101EE0007D098E099F09061717072807390708F08B
:101EF00076CF809154020E941A09109253021092D8
:101F0000520210922F02DF91CF911F910F91FF90FB
:101F1000EF90DF90CF9008959D9191938F5F75CF53
:101F200085EEB0CF8091550290915602A091570254
:101F3000B0915802892B8A2B8B2B09F4A9CF0E94D0
:101F4000E9090091550210915602209157023091F3
:101F500058026C197D098E099F0906171707280773
:101F6000390708F095CFC5CF089590E080E0089537
:101F70000895DC01ED91FC910680F781E02D099533
:101F800023E333E948E853E40E943F2E26E636E691
:101F900046EE5FE30E94603020E030E040E052E433
:101FA0000E94402E0895DC01ED91FC910680F7819E
:101FB000E02D099523E333E948E853E40E943F2EDE
:101FC00008950F931F93CF938C01C62F0E94CD0EBF
:101FD0006C2F6460C8010E94CD0E6C2F6B7FC8010E
:101FE0000E94CD0E83EC90E00197F1F7CF911F9105
:101FF0000F9108950F931F93CF93DF938C01D62FEA
:10200000C42F607F642B0E94E10F80E1D89FB00154
:1020100011246C2BC801DF91CF911F910F910C946B
:10202000E10FEF92FF920F931F93CF93DF938C01F9
:102030007A01677088E0689FB0011124606440E015
:10204000C8010E94FA0FE701A8E0EA0EF11C6991AD
:10205000D801ED91FC910190F081E02DC801099526
:10206000CE15DF05A1F7DF91CF911F910F91FF9062
:10207000EF900895CF93DF93CDB7DEB728970FB6D3
:10208000F894DEBF0FBECDBF28E0E3E4F1E0DE014F
:10209000119601900D922A95E1F7FC0120852417F5
:1020A00010F44FEF420F50E0440F551F21E030E095
:1020B0002C0F3D1F420F531FFA012081620F6068F1
:1020C00040E028960FB6F894DEBF0FBECDBFDF917B
:1020D000CF910C94FA0FCF93DF93EC0140E061E0D5
:1020E0000E94FA0F8BE39FE10197F1F7898588231E
:1020F00039F040E060E0CE01DF91CF910C943A10CE
:10210000DF91CF91089541E00E94FA0F81E090E0C5
:102110000895FB0101900020E9F73197AF01461BBC
:10212000570BDC01ED91FC910280F381E02D0994C5
:1021300069E871E084ED92E00C948910CF93DF930D
:102140000E942E0DEC010E9498108C0F9D1FDF91B4
:10215000CF9108958F929F92AF92BF92EF92FF928C
:102160000F931F93CF93DF93CDB7DEB7A1970FB631
:10217000F894DEBF0FBECDBF7C01FA01CB0119A2DE
:10218000223008F42AE08E010F5D1F4F822E912C21
:10219000B12CA12CBF01A50194010E94FD2DF901D4
:1021A000CA016A300CF5605DD8016E938D01232B56
:1021B000242B252B79F790E080E0109721F0BD01CA
:1021C000C7010E948910A1960FB6F894DEBF0FBE1A
:1021D000CDBFDF91CF911F910F91FF90EF90BF90F6
:1021E000AF909F908F900895695CDECFCF92DF9281
:1021F000EF92FF920F931F93CF93DF9377FF1DC052
:102200006A017B01EC016DE20E943A0C8C014427CB
:102210005527BA014C195D096E097F092AE0CE01E4
:102220000E94AA10800F911FDF91CF911F910F91F3
:10223000FF90EF90DF90CF9008952AE0DF91CF914B
:102240001F910F91FF90EF90DF90CF900C94AA1008
:10225000AB01770F660B770B0C94F610AB0170E0B7
:1022600060E02AE00C94AA102F923F924F925F9266
:102270006F927F928F929F92AF92BF92CF92DF9296
:10228000EF92FF921F93CF93DF93EC016A017B01E2
:10229000722EAB019601CB01B6010E94CD306CE8E5
:1022A00071E0811126C046015701E894B7F82FEF7D
:1022B0003FEF4FE75FE7C501B4010E94CD308111C8
:1022C0000CC02FEF3FEF4FE75FE7C501B4010E945D
:1022D000AC2E60E971E0181664F02FEF3FEF4FE786
:1022E0005FE4C701B6010E940B301816B4F464E92C
:1022F00071E0CE01DF91CF911F91FF90EF90DF90C1
:10230000CF90BF90AF909F908F907F906F905F9095
:102310004F903F902F900C9489102FEF3FEF4FE795
:102320005FECC701B6010E94AC2E87FDE0CF20E034
:1023300030E0A901C701B6010E94AC2E312C212C3E
:1023400087FF09C06DE2CE010E943A0C1C01F7FA2A
:10235000F094F7F8F09410E060E070E080E09FE324
:10236000711641F020E030E040E251E40E94B12ECD
:102370001F5FF6CFA70196010E94402E2B013C0162
:102380000E942A2F4B015C012AE0BC01A401CE016E
:102390000E94AA107C01E20CF31C1123A1F1C501DB
:1023A000B4010E94592F9B01AC01C301B2010E94EC
:1023B0003F2E4B015C016EE2CE010E943A0CE80E0A
:1023C000F91E115000F120E030E040E251E4C50177
:1023D000B4010E9460302B013C010E942A2F4B0166
:1023E000CE010E942E11E80EF91EB40190E080E0AB
:1023F0000E94592F9B01AC01C301B2010E943F2EE4
:102400004B015C01DECFC701DF91CF911F91FF909F
:10241000EF90DF90CF90BF90AF909F908F907F9084
:102420006F905F904F903F902F900895CF93DF93E0
:10243000242FAB01BC0184ED92E00E943411EC0129
:102440000E9498108C0F9D1FDF91CF9108950C94DE
:1024500034116115710511F00C94891090E080E041
:1024600008952F923F924F925F926F927F928F9238
:102470009F92AF92BF92CF92DF92EF92FF920F9313
:102480001F93CF93DF93CDB7DEB72A970FB6F8949B
:10249000DEBF0FBECDBF2DB63EB680916C049091CD
:1024A0006D040E946B10809118018823E9F010924E
:1024B000180140E151E06FE080916C0490916D044F
:1024C0000E94111048E051E06EE080916C04909100
:1024D0006D040E94111040E051E06DE080916C04A9
:1024E00090916D040E941110E0917B04F0E0EE0FDA
:1024F000FF1FE259FB4F8080918000916C04109186
:102500006D04D4011696BC90169714968C91BB203E
:1025100011F08B1508F4B82EF401A5802B2D30E0B6
:10252000AB1408F470C0A394AB18A9014A0D511D57
:102530008417150614F4A82EAB185A2CA9014A0DBD
:10254000511D5A874987252D2A19852D90E0A98587
:10255000BA858A179B070CF0D0C1F4014580880F1B
:10256000991FE80FF91FC080D180D40114968C9177
:10257000B81610F4F6012083D6014C9111966C9197
:10258000C8010E943A10F6017796FC83EB8376012E
:102590009601265F3F4F3E832D83AB81BC818D9199
:1025A000BC83AB83813409F404C108F05FC080327E
:1025B00009F4D1C0C8F5893009F4BDC030F58130C7
:1025C00009F4E2C0883009F4AAC0B2E0EB0EF11CB5
:1025D000ED81FE81EE15FF0501F754107AC1D60199
:1025E00014968C91823009F464C1833009F473C16C
:1025F000813009F07EC1D801ED91FC910190F0810C
:10260000E02D6FE064C1A12C98CF803109F49CC00B
:102610008131D9F6D7011D96ED91FC9160817181D0
:10262000C8010E942E11D1CF8C3309F46FC0A0F4E1
:10263000813209F49CC0823341F6F601258130E0F5
:10264000D7011D96ED91FC9140815181628173818A
:10265000C8010E942712B9CF8F3308F0B6CFF70117
:1026600065857685C8010E942912AFCF893D09F49E
:10267000FEC020F5803D09F4E4C080F4863409F4FE
:102680008AC0893C09F0A1CFD7011D96ED91FC913C
:10269000309709F49ACF0995682F7BC0813D09F4E2
:1026A000DCC0883D09F091CFD7011D96ED91FC91DA
:1026B000309709F48ACF0995BC0139C0803F09F4ED
:1026C000EBC088F4883E09F4DCC0893E09F07DCF78
:1026D000D7011D96ED91FC91309709F476CF0995BD
:1026E000AB01BC014CC08B3F09F4A1C08C3F09F485
:1026F0009EC08A3F09F069CFD7011D96ED91FC91EC
:10270000309709F462CF0995682F05C0D7011D964F
:10271000ED91FC916081C8010E943A0C56CFD7011F
:102720001D96ED91FC916081062E000C770BC8017F
:102730000E9428114ACFD7011D96ED91FC9140814E
:1027400050E070E060E01BC0D7011D96ED91FC9158
:1027500060817181ECCFD7011D96ED91FC91408194
:10276000518162817381C8010E94F6102ECFD7017A
:102770001D96ED91FC9140815181628173812AE027
:10278000C8010E94AA1021CFD7011D96ED91FC919E
:10279000608170E0CCCFF701A585B685F801808116
:1027A0009181FC01208131816C91C801F901099569
:1027B0000CCF2DB73EB738872F83D7011D966D906C
:1027C0007C90C3010E94B42D9A83898389819A8168
:1027D000EDB7FEB7E81BF90B0FB6F894FEBF0FBEBE
:1027E000EDBF6DB77EB76F5F7F4F20E0822F90E027
:1027F00049815A818417950754F4F301E80FF91FB2
:10280000E491860F971FDC01EC932F5FEFCFE981F6
:10281000FA81E60FF71F1082C8010E942912EF818A
:10282000F8850FB6F894FEBF0FBEEDBFCECED70130
:102830001D96ED91FC91309709F4C7CE0995BC0126
:1028400011CFD7011D96ED91FC91309709F4BDCEC3
:102850000995682F880F770B6ACFD7011D96ED91E8
:10286000FC91309709F4B1CE0995482F69CFD70173
:102870001D96ED91FC91309709F4A7CE0995BC0106
:10288000CFCED7011D96ED91FC91309709F49DCEE6
:102890000995AB01BC0167CFD7011D96ED91FC9165
:1028A000309709F492CE0995AB01BC0122E030E0EB
:1028B000CFCEF601618161504081C8010E943A107B
:1028C000D801ED91FC910190F081E02D6EE0C801FE
:1028D0000995539438CEF60142816381C8010E9464
:1028E0003A10D801ED91FC910190F081E02D6DE05E
:1028F000EECF21E0F60124837ECE0FB6F8943EBEE3
:102900000FBE2DBE2A960FB6F894DEBF0FBECDBF08
:10291000DF91CF911F910F91FF90EF90DF90CF90BB
:10292000BF90AF909F908F907F906F905F904F90EF
:102930003F902F900895E0917B04F0E0EE0FFF1F91
:10294000E259FB4F0190F081E02D85819481891738
:1029500071F090E0880F991FE80FF91F0190F08146
:10296000E02D0184F285E02D309709F009950C9453
:1029700031128091FB0181110C949B140895E09118
:102980007B04F0E0EE0FFF1FE259FB4F0190F08156
:10299000E02D85819481891771F090E0880F991F4F
:1029A000E80FF91F0190F081E02D0780F085E02D00
:1029B000309709F009950C9431128091FB01811137
:1029C0000C94BF1408958091FB0181111EC0809169
:1029D0006C0490916D040E946B1090917A04915058
:1029E00080917B048823B9F08150E82FF0E0EE0F4E
:1029F000FF1FE259FB4F0190F081E02D278121114B
:102A0000F1CF80937B040E9431128091FB018823D7
:102A100021F00C949B14892FE8CF08958091FB013D
:102A2000811120C080916C0490916D040E946B1004
:102A300020917A042150330B80917B048217130676
:102A4000BCF48F5FE82FF0E0EE0FFF1FE259FB4F61
:102A50000190F081E02D97819111F0CF80937B045C
:102A60000E9431128091FB01882321F00C94BF1445
:102A700080E0E8CF089585ED8093BC0080915502F9
:102A800090915602A0915702B09158020796A11D4D
:102A9000B11D23E0B695A795979587952A95D1F70F
:102AA0002091BC0024FD03C01092A2020895409121
:102AB0005502509156026091570270915802452B71
:102AC000462B472B69F30097A105B10541F025E39B
:102AD0002A95F1F700000197A109B109E1CF809192
:102AE00054020C941A09AF92BF92CF92DF92EF92E8
:102AF000FF920F931F93CF93DF936B0124E0C20EDD
:102B0000D11CEB0110E000E05C01A61AB70A7501C8
:102B1000EC0EFD1EC7010E94CD2D6991861729F08C
:102B2000C7010E94DF2D0F5F1F4FCC15DD0579F720
:102B3000C801DF91CF911F910F91FF90EF90DF902F
:102B4000CF90BF90AF900895CF93DF93CDB7DEB70E
:102B500060970FB6F894DEBF0FBECDBF8091ED0138
:102B60009091EE014091390150913A0160913B0101
:102B700070913C0149835A836B837C83BE016F5FF4
:102B80007F4F0E9473158091EB019091EC01409171
:102B900021015091220160912301709124014D8304
:102BA0005E836F837887BE016B5F7F4F0E947315D2
:102BB0008091E9019091EA0140911D0150911E011F
:102BC00060911F017091200149875A876B877C872C
:102BD000BE01675F7F4F0E9473158091E70190915E
:102BE000E8014091190150911A0160911B01709107
:102BF0001C014D875E876F87788BBE01635F7F4FB7
:102C00000E94731560960FB6F894DEBF0FBECDBF5D
:102C1000DF91CF910895E0917B04F0E0EE0FFF1F6C
:102C2000E259FB4F80819181865C954009F43DC05B
:102C30008091FB01811156C081E08093FB01E091FE
:102C40007B04F0E0EE0FFF1FE259FB4F8081918182
:102C50008254954059F48091FB01882339F081E03A
:102C60008093030282EC90E00E949E1080916C049D
:102C700090916D040E946B10E0917B04F0E0EE0FE8
:102C8000FF1FE259FB4FA081B18114969C911497CC
:102C900015968C911597891750F58F5F15968C9323
:102CA0001597981327C00E943112E0917B04F0E041
:102CB000EE0FFF1FE259FB4F80819181865C9540AA
:102CC00079F480910202811125C081E08093020293
:102CD0004AE050E068E971E08FE291E00E942C3216
:102CE0000C9431121092FB010E94A415A8CF1596E6
:102CF0001C9215971596EC911597F0E0EE0FFF1FBB
:102D0000EA0FFB1F0190F081E02D848D882309F4E8
:102D1000BFCFC9CF109202024AE050E06FE971E0E4
:102D2000DBCF0C94A3318F929F92AF92BF92CF9240
:102D3000DF92EF92FF92CF93DF93EC01CC80DD80A6
:102D4000EE80FF806C897D89072E000C880B990B23
:102D50000E945B2F4B015C018A810E94D409BC0157
:102D6000990F880B990B0E945B2F9B01AC01C50149
:102D7000B4010E94B12E20E030E040E85FE30E9401
:102D80003F2E9B01AC01C701B6010E94B12E2885E0
:102D900039854A855B850E94B12E0E9418304B010F
:102DA0005C012C853D854E855F8560E070E080E8A4
:102DB0009FE30E94B12E6B017C01288939894A89E1
:102DC0005B89C501B4010E94B12E9B01AC01C70112
:102DD000B6010E94402E9B01AC0160E070E080E8EB
:102DE0009FE30E94B12EDF91CF91FF90EF90DF9093
:102DF000CF90BF90AF909F908F9008951F920F92A9
:102E00000FB60F9211242F933F934F935F936F93BD
:102E10007F938F939F93AF93BF93EF93FF93809193
:102E2000B900887F803609F44AC0F0F5883209F489
:102E3000A7C018F5803109F49BC0B8F4882309F4C1
:102E4000F9C0883009F494C0FF91EF91BF91AF9120
:102E50009F918F917F916F915F914F913F912F91B2
:102E60000F900FBE0F901F901895883109F488C0FD
:102E7000803251F78093A10214C0803409F49DC0C0
:102E800040F48033B9F38833F9F68093A10285ECDE
:102E9000B0C0803509F485C0883509F496C08834FF
:102EA00099F60E943B15D0CF883909F48CC038F5CB
:102EB000883729F050F4883611F0803729F683E0FE
:102EC0008093A2021092A00257C0883809F47BC0F8
:102ED000803919F0803809F0B7CF8091A002803294
:102EE00008F071C0E091A00281E08E0F8093A002F3
:102EF0008091BB00F0E0E058FD4F80833DC0803BF7
:102F000039F0E0F4803A09F479C0883A09F09CCFAE
:102F100084E08093A20210927D0210927C02E091E4
:102F20007A02F0917B02099580917C0281110FC099
:102F300081E080937C0210925A0209C0803C09F41F
:102F4000A6CF883C09F4A3CF883B09F07DCFE09160
:102F50007D0281E08E0F80937D02F0E0E65AFD4F06
:102F600080818093BB0090917D0280917C0229C07A
:102F70008091C7028093BB0085EC8093BC0064CF36
:102F80009091C6028091C502981758F5E091C6024B
:102F900081E08E0F8093C602F0E0EB55FD4F8081FB
:102FA000E9CFE091C60281E08E0F8093C602809146
:102FB000BB00F0E0EB55FD4F80839091C6028091FD
:102FC000C5029817C8F285E8D8CFE091C60281E023
:102FD0008E0F8093C6028091BB00F0E0EB55FD4F51
:102FE00080838091A40281115CCF81E08093A30251
:102FF00084EA8093BC001092A20226CF85EC8093D5
:10300000BC001092A2028091A002803230F4E091C4
:10301000A002F0E0E058FD4F10826091A00270E045
:10302000E0917E02F0917F0280E892E00995109293
:10303000A0020ACF1092A10234CF1F920F920FB6B6
:103040000F9211242F933F938F939F93AF93BF932E
:103050008091070290910802A0910902B0910A02A2
:103060003091060223E0230F2D3758F50196A11D5C
:10307000B11D209306028093070290930802A0934B
:103080000902B0930A0280910B0290910C02A09168
:103090000D02B0910E020196A11DB11D80930B028D
:1030A00090930C02A0930D02B0930E02BF91AF91CA
:1030B0009F918F913F912F910F900FBE0F901F9076
:1030C000189526E8230F0296A11DB11DD2CF1F929D
:1030D0000F920FB60F9211242F933F934F935F934C
:1030E0006F937F938F939F93AF93BF93EF93FF93D0
:1030F00084ED92E00E94BF0CFF91EF91BF91AF91E0
:103100009F918F917F916F915F914F913F912F91FF
:103110000F900FBE0F901F9018951F920F920FB631
:103120000F9211242F938F939F93EF93FF93E0912E
:10313000E402F091E5028081E091EA02F091EB0275
:1031400082FD1BC090818091ED028F5F8F73209173
:10315000EE02821741F0E091ED02F0E0EC52FD4FFB
:10316000958F8093ED02FF91EF919F918F912F9119
:103170000F900FBE0F901F9018958081F4CF0F9382
:103180001F93CF93DF93EC018A010E94E8028E81A6
:10319000853080F4282F30E0F901EE0FFF1FEC0F8F
:1031A000FD1F168705872C0F3D1F9EE3F901978BA6
:1031B0008F5F8E83DF91CF911F910F910895FC0156
:1031C0001782718360835383428382E08483858383
:1031D00086830895FC0196819530A8F4292F30E06C
:1031E000D901AA0FBB1FAE0FBF1F1E967C936E9313
:1031F0001D972E0F3F1F82E3D90157968C939F5F37
:10320000968381E0089580E00895FC01862F22E3F3
:1032100030E03383228320E931E03583248320E2C8
:1032200033E0378326831386128615861486178625
:103230001686118A108A138A128A158A148A178AA6
:10324000168A118E108E138E128E158E148E178E76
:10325000168E11A210A213A212A215A214A211A6D8
:1032600010A613A612A615A614A617A616A611AA8E
:1032700010AA21E030E031AF20AF60837183118666
:10328000108662E00C943B098F929F92AF92BF929E
:10329000FF920F931F93CF93DF931092CB02109264
:1032A000CA0288EE93E0A0E0B0E08093CC02909355
:1032B000CD02A093CE02B093CF022DE531E0309342
:1032C000C9022093C8021092D7021092D6028093AE
:1032D000D8029093D902A093DA02B093DB028FE672
:1032E00091E09093D5028093D40285EC90E0909386
:1032F000E1028093E00284EC90E09093E3028093FB
:10330000E20280EC90E09093E5028093E40281EC8D
:1033100090E09093E7028093E60282EC90E0909335
:10332000E9028093E80286EC90E09093EB028093B0
:10333000EA021092ED021092EE021092EF02109249
:10334000F00284E690E090937203809371031092F0
:10335000BD061092BC0681E891E09093BB06809375
:10336000BA061092C30687E28093BE0680E180937E
:10337000C40682E08093C5061092C6066CE070E039
:1033800080E896E00E9405196AE070E086E496E025
:103390000E9405196BE070E08CE096E00E94051930
:1033A00047EA51E060E08FEE95E00E94BF186BEEB7
:1033B00075E08FEE95E00E94EA188091F505853062
:1033C00098F4282F30E0F901EE0FFF1FE151FA4F7A
:1033D0004AEA51E05687458721513A4F9EE3F90169
:1033E000978B8F5F8093F50569E371E08FEE95E031
:1033F0000E94EA1861E08EEC95E00E94E80280915C
:10340000D405853098F4282F30E0F901EE0FFF1F26
:10341000E253FA4F4FE251E05687458722533A4F25
:103420009DE3F901978B8F5F8093D4054EEC55E0B7
:103430006FEE75E086EC95E00E94DF184EEA51E0F1
:1034400060E089EA95E00E94BF1869E371E089EACB
:1034500095E00E94EA1847EB51E061E08CE895E0C6
:103460000E94BF184CE855E069EA75E084E895E0F1
:103470000E94DF1844EC51E060E087E695E00E948E
:10348000BF1861E08AE495E00E94E802809150054F
:10349000853098F4282F30E0F901EE0FFF1FE65B2E
:1034A000FA4F45E251E056874587265B3A4F9DE348
:1034B000F901978B8F5F809350054AE455E067E6EA
:1034C00075E082E495E00E94DF1860E085E295E017
:1034D0000E94E80261E271E085E295E00E94EA184C
:1034E0004DEC51E061E088E095E00E94BF1848E0B3
:1034F00055E065E275E080E095E00E94DF1860E04D
:1035000083EE94E00E94E8026DE171E083EE94E0C6
:103510000E94EA1843ED51E061E086EC94E00E94DD
:10352000BF1846EC54E063EE74E08EEB94E00E942A
:10353000DF1860E081EA94E00E94E80269E171E04E
:1035400081EA94E00E94EA184AED51E061E084E8E3
:1035500094E00E94BF1844E854E061EA74E08CE70C
:1035600094E00E94DF188AEB96E090936D048093BC
:103570006C0410927A0410927B0410922104109231
:103580002204109223041092240410922504109215
:1035900026041092270410922804109229041092F5
:1035A0002A0410922B0410922C0410924B041092B7
:1035B0004C0410924D04FF24F394F0924E041092A8
:1035C0004F04C9E1D4E0D0934804C09347040BEE04
:1035D00015E0109346040093450489E391E090932D
:1035E0004A0480934904109258041092590410928E
:1035F0005A0410925B0480E090E0AFE7B3E480935C
:103600005C0490935D04A0935E04B0935F0480EA31
:1036100096E8A1E0B0E08093500490935104A09309
:103620005204B093530410921D0410921E04109281
:103630001F04109220041092390410923A04109240
:103640003B0410923C0410923D0410923E041092F0
:103650003F041092400410924104109242041092D0
:103660004304109244040E94E90980905004909011
:103670005104A0905204B0905304681979098A0942
:103680009B0960935404709355048093560490935F
:1036900057041092BF031092C0031092C1031092FE
:1036A000C2031092EC031092EB031092EE031092FF
:1036B000ED031092F0031092EF031092F2031092B8
:1036C000F1031092F4031092F3031092FD03109291
:1036D000FE031092FF031092000410920104109256
:1036E0000204109203041092040480EE9CE9A9E8FD
:1036F000B0E48093110490931204A0931304B09348
:10370000140487E197EBA1EDB8E38093150490933F
:103710001604A0931704B093180410937803009331
:103720007703D0937A03C0937903109276031092B3
:103730007303F0927403DF91CF911F910F91FF906B
:10374000BF90AF909F908F900C940E0ACF93DF9311
:10375000CDB7DEB7A0970FB6F894DEBF0FBECDBFD2
:10376000789484B5826084BD84B5816084BD85B55C
:10377000826085BD85B5816085BD80916E00816068
:1037800080936E001092810080918100826080930E
:103790008100809181008160809381008091800010
:1037A0008160809380008091B10084608093B1003B
:1037B0008091B00081608093B00080917A00846035
:1037C00080937A0080917A00826080937A00809161
:1037D0007A00816080937A0080917A00806880937B
:1037E0007A001092C100E091E402F091E50282E0DB
:1037F0008083E091E002F091E1021082E091E20228
:10380000F091E30280E180831092EC02E091E80203
:10381000F091E90286E08083E091E602F091E70210
:10382000808180618083E091E602F091E7028081EF
:1038300088608083E091E602F091E70280818068F1
:103840008083E091E602F091E70280818F7D8083A2
:1038500068EB7BE080E090E00E94BB0A80914B0423
:10386000811102C00E947F0781E080934B0492E0A7
:1038700090934D0480934F0480934E042091E50172
:103880003091E6018091E3019091E4012817390716
:1038900021F41092E4011092E3018091E3019091F0
:1038A000E4018C010F5F1F4F9093F0018093EF01B3
:1038B0001093EE010093ED019C012B5F3F4F30937D
:1038C000EC012093EB012C5F3F4F3093EA012093F2
:1038D000E901285F3F4F3093E6012093E501245032
:1038E00031093093E8012093E7010E94CD2D843502
:1038F00009F0D6C244E050E0B801CE0101960E9422
:10390000BD2D89819A81AB81BC81809339019093CF
:103910003A01A0933B01B0933C016091EB0170919F
:10392000EC0144E050E0CE0101960E94BD2D89815A
:103930009A81AB81BC818093210190932201A09355
:103940002301B09324016091E9017091EA0144E000
:1039500050E0CE0101960E94BD2D89819A81AB81F4
:10396000BC8180931D0190931E01A0931F01B09311
:1039700020016091E7017091E80144E050E0CE0140
:1039800001960E94BD2D89819A81AB81BC81809373
:10399000190190931A01A0931B01B0931C0161E0DF
:1039A00086E00E943B0986EC95E00E94E2071092B7
:1039B000F40582E495E00E94E2078CE794E00E941F
:1039C000E2078EEB94E00E94E20780E095E00E941F
:1039D000E20784E895E00E94E2071092AE0583EECC
:1039E00094E190938B0680938A0689EB94E19093FF
:1039F000A9068093A8068EE095E1909351068093E6
:103A000050068DED94E190936F0680936E068BE0E7
:103A100096E190931706809316068DEE9AE09093A8
:103A2000B1058093B00581E08093C50525E23BE0B8
:103A30003093B3052093B20529E53BE030932D0583
:103A400020932C058093410520E73BE030932F0520
:103A500020932E0524EA3BE03093EB042093EA0404
:103A60008093FF042BEB3BE03093ED042093EC04B8
:103A70002FEE3BE03093A9042093A8048093BD046B
:103A800086E09CE09093AB048093AA0410925102CC
:103A90001092500210925302109252020E94FC089F
:103AA0008DE198E090937B0280937A028EE198E01A
:103AB00090937F0280937E021092BF068091C5068C
:103AC000823018F098E09093BF068093C20662E3BC
:103AD00070E080E090E00E94BB0A6091C6068AEB2D
:103AE00096E00E94CD0E68EE73E080E090E00E94C8
:103AF000BB0A60E38AEB96E00E94E10F0BE416E458
:103B0000C8010197F1F760E38AEB96E00E94E10FAC
:103B1000C8010197F1F760E38AEB96E00E94E10F9C
:103B200083E592E00197F1F760E28AEB96E00E946C
:103B3000E10F6091BF06606240E08AEB96E00E9470
:103B4000FA0F84E08093C00640E06CE08AEB96E0D8
:103B50000E94FA0F8AEB96E00E946B1082E080933D
:103B6000C10640E066E08AEB96E00E94FA0F40E072
:103B700062E08AEB96E00E94FA0F8BE39FE10197E7
:103B8000F1F788E08093C60660E08AEB96E00E9439
:103B9000CD0E86E190E00E9407318C018FE491E028
:103BA000D80111969C938E938EE090E013969C938F
:103BB0008E93129760E00E943B0980E090EEA2E9AC
:103BC000B5E4F80184839583A683B78380E090E50C
:103BD000A3ECB7E480879187A287B38783E393E15F
:103BE000A5E9B3E484879587A687B78780E090EE40
:103BF000A6E7B5E4808B918BA28BB38B8FEF93E01C
:103C0000958B848B109305020093040280914B04E2
:103C1000811102C00E947F0781E080934B040E94C3
:103C2000311280E896E00E94690D86E496E00E94D9
:103C3000690D8CE096E00E94690D809104029091DC
:103C40000502DC01ED91FC910480F581E02D0995E0
:103C50006093EB057093EC058093ED059093EE0572
:103C600080910302882309F4ADC18091FD01811187
:103C7000C1C081E08093FD01809102028093FC012C
:103C8000109202020E940E0A20E030E04AE753E45C
:103C900020938703309388034093890350938A03CA
:103CA00080E090E0AFE7B3E480938B0390938C03C4
:103CB000A0938D03B0938E0380E090E0ACE8B2E473
:103CC00080938F0390939003A0939103B0939203FA
:103CD00020E030E048EC52E42093930330939403C7
:103CE000409395035093960384EF91E0A0E0B0E0F9
:103CF0008093F9039093FA03A093FB03B093FC0322
:103D000024E630E040E050E02093F5033093F603E2
:103D10004093F7035093F80344EF51E05093EA03C4
:103D20004093E9038EE190E09093E8038093E703EA
:103D300020E034E244E759E420937F03309380038A
:103D4000409381035093820380EA90E4ADEDBBE49D
:103D50008093830390938403A0938503B093860399
:103D600020E23CEB4EEB5CE420937B0330937C033E
:103D700040937D0350937E0388E790E00E940731D3
:103D80008093F9019093FA014EE150E05093F201D3
:103D90004093F1011092F4011092F3011092F50199
:103DA0001092F6011092F7011092F801FC01885868
:103DB0009F4F11921192119211928E179F07C9F77E
:103DC00080E090E0ACE8B3E480939703909398038D
:103DD000A0939903B0939A034AE050E068E971E038
:103DE00085E291E00E942C320E94311281E095E040
:103DF0000E949E102091190430911A0440911B04D6
:103E000050911C0460E070E08FE793E40E943F2E25
:103E10000E94232F86E00E9477090E94E9092B0166
:103E20003C018091FD039091FE03A091FF03B091AE
:103E3000000473016201C81AD90AEA0AFB0A8090D9
:103E4000010490900204A0900304B09004048091B7
:103E5000050490910604A0910704B0910804A30101
:103E60009201281B390B4A0B5B0BDA01C9018093C5
:103E7000090490930A04A0930B04B0930C0480915E
:103E80007503813009F46DC008F467C0833011F404
:103E90000C94722C843011F40C94A72C84E05EC036
:103EA0008091390190913A01A0913B01B0913C0180
:103EB00089839A83AB83BC8344E050E0B801CE0190
:103EC00001960E94D52D6091EB017091EC018091DB
:103ED000210190912201A0912301B09124018983B5
:103EE0009A83AB83BC8344E050E0CE0101960E94EC
:103EF000D52D6091E9017091EA0180911D019091A9
:103F00001E01A0911F01B091200189839A83AB8388
:103F1000BC8344E050E0CE0101960E94D52D609113
:103F2000E7017091E8018091190190911A01A09127
:103F30001B01B0911C0189839A83AB83BC8344E04D
:103F400050E0CE0101960E94D52D64E58091EF01ED
:103F50009091F0010E94DF2D22CD81E080937503C6
:103F600031C020919703309198034091990350916B
:103F70009A0360919B0370919C0380919D039091A3
:103F80009E030E940B3018160CF0E1C28091F303DF
:103F90009091F403892B09F0DAC20E940E0A8091F5
:103FA000E9039091EA0301969093EC038093EB036D
:103FB00081E090E09093F4038093F3038BE094E02E
:103FC0000E949E102090030280910202882311F427
:103FD0000C94A22DE0901901F0901A0100911B01A0
:103FE00010911C0120911D0130911E0140911F0173
:103FF0005091200160912101709122018091230153
:10400000909124010E940B0380914B04882309F4B2
:104010001EC20E94E9096D8B7E8B8F8B988F8091D9
:104020004B048230F1F08091540490915504A0919A
:104030005604B09157044D895E896F89788D481B6D
:10404000590B6A0B7B0B8091500490915104A09105
:104050005204B0915304481759076A077B0708F4C4
:10406000F6C1E0914504F0914604208131814281FE
:104070005381298B3A8B4B8B5C8B20916804309158
:10408000690440916A0450916B0469897A898B892B
:104090009C890E943F2E2B013C0110914C04113051
:1040A00021F477FA709477F87094E0914904F091D4
:1040B0004A0429893A894B895C89608171818281AE
:1040C00093810E943F2E113011F40C946E2D609359
:1040D0006004709361048093620490936304C090C1
:1040E0006004D0906104E0906204F0906304209139
:1040F0006404309165044091660450916704C701DF
:10410000B6010E943F2E6D877E878F87988B8090A7
:10411000390490903A04A0903B04B0903C04A5016F
:104120009401C701B6010E9460306D837E838F8346
:10413000988710914D04112311F40C94712DA30153
:104140009201C501B4010E94603069877A878B872C
:104150009C87113011F40C94772D20E030E040E082
:104160005FE36D817E818F8198850E9460306D83D1
:104170007E838F83988720E030E040E05FE36985AD
:104180007A858B859C850E94603069877A878B87CA
:104190009C8729853A854B855C856D817E818F81E1
:1041A00098850E943F2E698F7A8F8B8F9C8F6093AA
:1041B0002D0470932E0480932F04909330048090EC
:1041C0003D0490903E04A0903F04B0904004A501AF
:1041D0009401C701B6010E9460306D8F7E8F8F8F72
:1041E00098A36093310470933204809333049093C6
:1041F0003404609141047091420480914304909191
:10420000440420914E0421110C947D2D2D853E8572
:104210004F8558890E94603060933504709336044E
:10422000809337049093380430904F0431107BC052
:104230002D8D3E8D4F8D58A1C701B6010E94402E95
:10424000A50194010E946030298D3A8D4B8D5C8DC3
:104250000E94402EF62EE72ED82EC92E40905C04E8
:1042600050905D0460905E0470905F04A301920121
:104270000E940B3018165CF420E030E0A9016D8537
:104280007E858F8598890E940B301816DCF020916E
:1042900058043091590440915A0450915B046F2D99
:1042A0007E2D8D2D9C2D0E94AC2E87FF3CC020E0E2
:1042B00030E0A9016D857E858F8598890E94AC2E9E
:1042C00087FF31C020E030E0A901C501B4010E94A0
:1042D000AC2E882341F153014201B7FAB094B7F8EC
:1042E000B094A50194016F2D7E2D8D2D9C2D0E94E3
:1042F000AC2E87FD10C0A30192016F2D7E2D8D2D58
:104300009C2D0E940B3053014201181624F08F2C73
:104310009E2CAD2CBC2C8092310490923204A09241
:104320003304B0923404209131043091320440912E
:1043300033045091340460911D0470911E048091E7
:104340001F04909120040E94402E29853A854B85B8
:104350005C850E943F2E7B018C01A0905804B09098
:104360005904C0905A04D0905B0432E033120C948C
:10437000822DC701D80180931D0490931E04A09341
:104380001F04B093200420911D0430911E0440911D
:104390001F04509120046D817E818F8198850E9439
:1043A000402E2091350430913604409137045091CD
:1043B00038040E94402E7B018C019501A6010E94C9
:1043C000AC2E87FD10C0A0905C04B0905D04C0903E
:1043D0005E04D0905F049501A601B701C8010E9458
:1043E0000B30181614F475018601E0914704F09122
:1043F0004804C701D80180839183A283B38380914D
:10440000600490916104A0916204B0916304809370
:10441000640490936504A0936604B093670489894B
:104420009A89AB89BC898093680490936904A093AE
:104430006A04B0936B042D893E894F89588D20936F
:1044400054043093550440935604509357042091DC
:10445000190430911A0440911B0450911C0460E02F
:1044600070E08FE793E40E943F2E0E94232F86E0A6
:104470000E94770921105EC02FB7F894809107023F
:1044800090910802A0910902B0910A022FBF4091B9
:10449000FE015091FF016091000270910102841BA6
:1044A000950BA60BB70B813D9740A105B10508F40C
:1044B00041C02FB7F8948091070290910802A09113
:1044C0000902B0910A022FBF8093FE019093FF0171
:1044D000A0930002B09301028CE195E00E942E0DA2
:1044E0004091EB055091EC056091ED057091EE0562
:1044F00022E030E084ED92E00E94271287E195E00F
:104500000E942E0D0E9498104091190450911A0497
:1045100060911B0470911C0422E030E084ED92E075
:104520000E9427120E94981084ED92E00E94490D8B
:104530000E94311240E050E0452B09F472CB0E94FA
:10454000AB0C882309F46DCB0E9400006ACBC30139
:10455000B201681979098A099B090E94592F4B01F8
:104560005C01C701B6010E94592F6B017C012091AB
:104570007B0330917C0340917D0350917E03C50104
:10458000B4010E940B3087FF02C00C94E52B009110
:10459000EB031091EC030130110581F4809193033A
:1045A00090919403A0919503B0919603E0917903C3
:1045B000F0917A0380839183A283B38320917F0358
:1045C000309180034091810350918203C701B6016D
:1045D0000E940B3087FDF6CC4092FD035092FE0303
:1045E0006092FF03709200042090E9033090EA0388
:1045F0002016310610F40C94582B80919B03909157
:104600009C03A0919D03B0919E0389879A87AB87F5
:10461000BC8720919F033091A0034091A10350914A
:10462000A2032D873E874F87588BE0917703F09147
:10463000780380809180A280B38080929B039092C7
:104640009C03A0929D03B0929E038091F3019091F0
:10465000F40101969093F4018093F3014091F101EC
:104660005091F2015E834D838417950720F01092DC
:10467000F4011092F3018091F9019091FA019A8B63
:10468000898BE090F301F090F401EE0CFF1CEE0C2E
:10469000FF1CE80EF91ED7012D913D914D915C91C3
:1046A000C501B4010E943F2E2091F5013091F60121
:1046B0004091F7015091F8010E94402E6093F5015E
:1046C0007093F6018093F7019093F801F7018082CF
:1046D0009182A282B3822D813E81B90190E080E077
:1046E0000E94592F6D8B7E8B8F8B988F9B01AC0115
:1046F0006091F5017091F6018091F7019091F801B8
:104700000E94B12E4B015C0180929F039092A00306
:10471000A092A103B092A203C0909B03D0909C03EF
:10472000E0909D03F0909E0329853A854B855C853A
:10473000C701B6010E943F2E9B01AC015F7729871C
:104740003A874B875C872D853E854F855889C50103
:10475000B4010E943F2E4B015C01E894B7F88091B0
:10476000150490911604A0911704B09118048D8738
:104770009E87AF87B88B9C01AD0169857A858B8553
:104780009C850E940B301816E4F42091AF03309101
:10479000B0034091B1035091B20369857A858B854E
:1047A0009C850E94AC2E87FF0CC029853A854B85DD
:1047B0005C852093AF033093B0034093B1035093D3
:1047C000B2032D853E854F855889C501B4010E94ED
:1047D0000B301816B4F42091B3033091B403409118
:1047E000B5035091B603C501B4010E94AC2E87FFFA
:1047F00008C08092B3039092B403A092B503B09224
:10480000B6030115110509F05AC01092F401109277
:10481000F3012D893E894F89588DC701B6010E9449
:1048200060306093F5017093F6018093F7019093E7
:10483000F801E989FA894D815E814017510739F005
:10484000C192D192E192F1920F5F1F4FF4CF80910C
:104850009B0390919C03A0919D03B0919E03809334
:104860009F039093A003A093A103B093A20380930E
:10487000AF039093B003A093B103B093B2038093BE
:10488000B3039093B403A093B503B093B60380939E
:10489000C3039093C403A093C503B093C60340928F
:1048A0000504509206046092070470920804109266
:1048B000090410920A0410920B0410920C04C09088
:1048C0009F03D090A003E090A103F090A2038091F9
:1048D000F3019091F4010196AD81BE818A179B0787
:1048E00010F090E080E0880F991F880F991FE989E8
:1048F000FA898E0F9F1FDC012D913D914D915C91A6
:10490000C701B6010E943F2E4B015C018092BB03A0
:104910009092BC03A092BD03B092BE0300917303BA
:104920002091AF033091B0034091B1035091B20395
:10493000409015045090160460901704709018046D
:104940008091C3039091C403A091C503B091C603A5
:104950008D839E83AF83B887023008F067C0BC01A7
:10496000CD010E94402EA30192010E94402E9B0186
:10497000AC0111E0C701B6010E940B3018160CF013
:1049800010E020E030E0A9016091DB037091DC03CE
:104990008091DD039091DE030E94AC2E81111AC03C
:1049A0001123C1F06091090470910A0480910B04F5
:1049B00090910C040E94592F2DEB37E346E855E304
:1049C0000E9460306093DB037093DC038093DD030F
:1049D0009093DE036091B7037091B8038091B9039F
:1049E0009091BA03A30192010230A8F50E94402ED3
:1049F0009B01AC0111E0C501B4010E940B301816F7
:104A00000CF010E020E030E0A901C301B2010E94E7
:104A1000402E9B01AC01C501B4010E94AC2E87FF62
:104A200035C01092F0031092EF0330C06D817E818B
:104A30008F8198850E943F2EA30192010E943F2EF4
:104A40009B01AC01C701B6010E94AC2E182F111FAB
:104A50001127111F96CF0E943F2E9B01AC01C5016B
:104A6000B4010E94AC2E182F111F1127111FA30192
:104A7000920160E070E0CB010E943F2E9B01AC01EF
:104A8000C501B4010E940B3018165CF2112361F0CD
:104A90001092F0031092EF038092B7039092B80344
:104AA000A092B903B092BA038091EF039091F00302
:104AB00001969093F0038093EF030D7F09F0CDC32F
:104AC000910144E0369527954A95E1F782179307BF
:104AD00009F068C03092EC032092EB038091090446
:104AE00090910A04A0910B04B0910C0480930D04E2
:104AF00090930E04A0930F04B0931004C092A303EC
:104B0000D092A403E092A503F092A6038090B7038D
:104B10009090B803A090B903B090BA03209111040B
:104B2000309112044091130450911404C501B40152
:104B30000E946030A70196010E94402E6093A70357
:104B40007093A8038093A9039093AA032D813E81BB
:104B50004F8158850E943F2EA50194010E94B12EDD
:104B60002091830330918403409185035091860303
:104B70000E9460302DEB37E346E855E30E94603039
:104B80002091DB033091DC034091DD035091DE0383
:104B90000E943F2E6093D7037093D8038093D9036C
:104BA0009093DA032091EB033091EC038091E903B9
:104BB0009091EA032817390709F077C42091D703A9
:104BC0003091D8034091D9035091DA036091DB030F
:104BD0007091DC038091DD039091DE030E94B12E81
:104BE0006093DF037093E0038093E1039093E2030B
:104BF0002091C3033091C4034091C5035091C60373
:104C00006091A7037091A8038091A9039091AA03D2
:104C10000E943F2E209187033091880340918903A1
:104C200050918A030E94B12E6B017C0120918F0369
:104C300030919003409191035091920360919303BE
:104C40007091940380919503909196030E943F2E5A
:104C500020918B0330918C0340918D0350918E03F2
:104C60000E94B12E9B01AC01C701B6010E94B12E7A
:104C70009F776093D3037093D4038093D50390936D
:104C8000D6030E94F3056093C7037093C803809313
:104C9000C9039093CA030E9484046093CB0370936A
:104CA000CC038093CD039093CE030E94B603609310
:104CB000CF037093D0038093D1039093D20380915C
:104CC00074038150833008F0FFC10E94981086EB76
:104CD00093E00E942E0D80917303811191C38DEAA0
:104CE00093E00E949E100E9498108BE793E00E9430
:104CF0002E0D60918F03709190038091910390919C
:104D0000920342E050E00E94161286E693E00E9471
:104D10002E0D60919303709194038091950390916F
:104D2000960342E050E00E94161281E593E00E9453
:104D30002E0D2DEB37E346E855E360917F0370912C
:104D4000800380918103909182030E94603044E04F
:104D500050E00E9416120E949810809174038330D4
:104D600009F048C0809173038D7F09F043C08CE344
:104D700093E00E942E0D60910D0470910E048091BD
:104D80000F04909110040E94592F2DEB37E346E851
:104D900055E30E94603044E050E00E94161287E222
:104DA00093E00E942E0D4091B7035091B80360919B
:104DB000B9037091BA0323E030E084ED92E00E94E1
:104DC000271280917303823008F027C382E293E0B8
:104DD0000E949E1088E093E00E942E0D6091A30334
:104DE0007091A4038091A5039091A60343E050E045
:104DF0000E94161283EF92E00E942E0D6091C30371
:104E00007091C4038091C5039091C60343E050E0C4
:104E10000E94161280917303823008F001C38EED58
:104E200092E00E942E0D6091A7037091A8038091DB
:104E3000A9039091AA0343E050E00E94161284EB6C
:104E400092E00E942E0D2091C3033091C403409143
:104E5000C5035091C6036091A7037091A803809188
:104E6000A9039091AA030E943F2E43E050E00E94C4
:104E700016120E9498108FE992E00E942E0D609108
:104E8000D3037091D4038091D5039091D60343E06E
:104E900050E00E9416128AE892E00E942E0D609166
:104EA000DB037091DC038091DD039091DE0343E02E
:104EB00050E00E94161285E792E00E942E0D60914C
:104EC000D7037091D8038091D9039091DA0343E01E
:104ED00050E00E9416120E9498102091DB0330913E
:104EE000DC034091DD035091DE036091D7037091A4
:104EF000D8038091D9039091DA030E94B12E2091BA
:104F000015043091160440911704509118040E9422
:104F1000402E6B017C012DEC3CEC47EC52E40E94EE
:104F20000B30181644F48DECC82E8CECD82E87EC80
:104F3000E82E82E4F82E80E692E00E942E0D21E019
:104F400030E0B701A60184ED92E00E94271220E034
:104F500030E040E45FE3C701B6010E940B30181651
:104F60000CF061C28DE492E00E949E102DEB37E3BD
:104F700046E855E360917F0370918003809181033F
:104F8000909182030E9460309B01AC016091D70335
:104F90007091D8038091D9039091DA030E94B12EC9
:104FA0006B017C0185E092E00E942E0D21E030E053
:104FB000B701A60184ED92E00E94271220E030E0C4
:104FC00040E251E4C701B6010E940B3087FD3BC2AD
:104FD00081EF91E00E949E100E9498108DEC91E06C
:104FE0000E942E0D80917603811130C286EC91E0F3
:104FF0000E949E1087E591E00E942E0D0E94F3050D
:1050000043E050E00E94161280E591E00E942E0DD0
:105010000E948404AB01BC0123E030E084ED92E007
:105020000E94271289E491E00E942E0D2091CB036B
:105030003091CC034091CD035091CE036091C703D2
:105040007091C8038091C9039091CA030E94B12E48
:1050500043E050E00E94161282E491E00E942E0D7F
:105060000E94B603AB01BC0123E030E084ED92E086
:105070000E9427128BE391E00E942E0D809176030F
:10508000853008F00EC22091CF033091D0034091BB
:10509000D1035091D2036091C7037091C8038091EE
:1050A000C9039091CA030E94B12E43E050E00E94D0
:1050B00016120E9498108091EB039091EC030196D8
:1050C0009093EC038093EB0392E0909375036091CF
:1050D000C7037091C8038091C9039091CA0360937C
:1050E0002101709322018093230190932401209148
:1050F000CB033091CC034091CD035091CE0320934C
:105100001D0130931E0140931F0150932001E09038
:10511000CF03F090D0030091D1031091D203E0921D
:105120001901F0921A0100931B0110931C010E94B7
:105130000B0382EB94E00E942E0D409139015091B7
:105140003A0160913B0170913C0122E030E084ED36
:1051500092E00E94271280EB94E00E942E0D86EAD6
:1051600094E00E942E0D4091EB055091EC0560916A
:10517000ED057091EE0522E030E084ED92E00E94B2
:10518000271284EA94E00E942E0D89E994E00E949F
:105190002E0D4091190450911A0460911B047091D6
:1051A0001C0422E030E084ED92E00E94271287E99F
:1051B00094E00E942E0D8FE894E00E942E0D8EE068
:1051C0000E94D409BC0184ED92E00E9428118DE870
:1051D00094E00E942E0D86E894E00E942E0D4091EE
:1051E000210450912204609123047091240422E050
:1051F00030E084ED92E00E94271284E894E00E945F
:105200002E0D8DE794E00E942E0D409125045091C3
:105210002604609127047091280422E030E084ED98
:1052200092E00E9427128BE794E00E942E0D84E703
:1052300094E00E942E0D4091290450912A0460911F
:105240002B0470912C0422E030E084ED92E00E9467
:1052500027120E9498100C94E21F013009F0A2CC92
:105260002091EB033091EC03C10101972817390716
:1052700028F001979093EC038093EB032091F903BE
:105280003091FA034091FB035091FC0360EA76E809
:1052900081E090E00E94ED2D0091090410910A0434
:1052A00020910B0430910C0460177107820793075B
:1052B00008F078CC6091E7037091E80390E080E01B
:1052C0000E94592F4B015C012091AB033091AC033C
:1052D0004091AD035091AE03C701B6010E940B305F
:1052E00018160CF083C02DEC3CEC4CE45EE3C501D9
:1052F000B4010E9460302091B3033091B403409117
:10530000B5035091B6030E946030A70196010E9438
:10531000402E6093AB037093AC038093AD039093E6
:10532000AE031092EE031092ED030091ED03109185
:10533000EE032AE939E949E95FE3C501B4010E94B6
:1053400060300E942A2F0617170709F02BCC0F5F39
:105350001F4F1093EE030093ED033092EC03209265
:10536000EB032091C3033091C4034091C5035091D6
:10537000C60360919B0370919C0380919D03909163
:105380009E030E943F2E2DEC3CEC4CE45DE30E941A
:10539000603020919F033091A0034091A103509170
:1053A000A2030E94402E6093A7037093A8038093EA
:1053B000A9039093AA036091090470910A04809153
:1053C0000B0490910C040E94592F2DE636E545ED13
:1053D0005FE30E9460302DEB37E346E855E30E941F
:1053E000603028E93EE642E95EE3C8CB8091ED03F8
:1053F0009091EE0301969093EE038093ED0395CF89
:10540000813019F484EA93E06CCC823019F48AE993
:1054100093E067CC80E993E064CC8DE193E0D8CC55
:1054200089EC92E0FECC20E030E040E85EE3C7018A
:10543000B6010E940B3018161CF482E392E094CD62
:105440008AE192E091CD8EED91E0C4CD813019F4E6
:105450008BEB91E0CDCD823019F48BEA91E0C8CD91
:10546000833019F48DE991E0C3CD843019F483E9D8
:1054700091E0BECD853019F48DE891E0B9CD86304C
:1054800019F483E891E0B4CD873019F484E791E012
:10549000AFCD883019F487E691E0AACD8EE591E092
:1054A000A7CD60E070E0CB0100CE2817390708F0E7
:1054B000EFC0809174038D7F813009F0E9C084E3EF
:1054C00091E00E942E0D6091090470910A04809170
:1054D0000B0490910C040E94592F2DEB37E346E802
:1054E00055E30E946030AB01BC0124E030E084ED64
:1054F00092E00E9427128CE291E00E942E0DE09132
:105500007903F0917A03408151816281738122E0B5
:1055100030E084ED92E00E94271285E291E00E9443
:105520002E0D40919B0350919C0360919D037091BF
:105530009E0323E030E084ED92E00E9427128091E8
:105540007403833079F5809173038D7F813051F539
:105550008CE191E00E942E0D4091AB035091AC0381
:105560006091AD037091AE0323E030E084ED92E0F2
:105570000E9427128EE091E00E942E0D6091ED03B3
:105580007091EE0384ED92E00E942E1182E091E092
:105590000E942E0D6091EF037091F00384ED92E074
:1055A0000E942E1180917403833081F480917303E3
:1055B0008D7F61F486EF90E00E942E0D6091EF03E5
:1055C0007091F00384ED92E00E942E118EEE90E037
:1055D0000E942E0D4091BB035091BC036091BD030E
:1055E0007091BE0323E030E084ED92E00E94271228
:1055F00026E636E646E65FE36091970370919803EE
:105600008091990390919A030E9460309B01AC01B4
:1056100060919B0370919C0380919D0390919E03E8
:105620000E940B30181624F489EE90E00E942E0D93
:105630002091BF033091C0034091C1035091C20338
:105640006091BB037091BC038091BD039091BE0338
:105650000E943F2E6B017C018090150490901604EF
:10566000A0901704B090180420E030E0A901C50113
:10567000B4010E94402E9B01AC01C701B6010E94FB
:105680000B3018160CF08CC084EE90E00E949E1037
:105690008091BB039091BC03A091BD03B091BE0368
:1056A0008093BF039093C003A093C103B093C20340
:1056B0008091EB039091EC0301969093EC0380931F
:1056C000EB031092750385EF94E00E949E108CEE20
:1056D00094E00E942E0D4091EB055091EC056091F5
:1056E000ED057091EE0522E030E084ED92E00E943D
:1056F00027128AEE94E00E942E0D80EE94E00E9424
:105700002E0D4091190450911A0460911B04709160
:105710001C0422E030E084ED92E00E9427128EED1E
:1057200094E00E942E0D87ED94E00E942E0D8EE0F5
:105730000E94D409BC0184ED92E00E94281185EDFD
:1057400094E00E942E0D8FEC94E00E942E0D0E949A
:10575000F305AB01BC0122E030E084ED92E00E9451
:1057600027128DEC94E00E942E0D87EC94E00E94AD
:105770002E0D0E948404AB01BC0122E030E084EDD8
:1057800092E00E94271285EC94E00E942E0D8FEB90
:1057900094E00E942E0D0E94B603AB01BC0153CDD4
:1057A000A501940160E070E0CB010E943F2E9B01B7
:1057B000AC01C701B6010E94AC2E87FF03C08FED7C
:1057C00090E064CF8AED90E061CF20917F0330912B
:1057D00080034091810350918203C701B6010E946A
:1057E0000B3087FF02C00C94E21F8091F30390916D
:1057F000F403892B11F00C94E21F80918F03909198
:105800009003A0919103B0919203E0917903F091FC
:105810007A0380839183A283B3834092FD035092E5
:10582000FE036092FF0370920004E0917703F09111
:10583000780380819181A281B38180939B039093AF
:105840009C03A0939D03B0939E03809174038D7F6E
:10585000813009F036CF84E094E00E942E0DA5013E
:10586000940160917B0370917C0380917D03909102
:105870007E030E943F2E2DEB37E346E855E30E945E
:105880006030AB01BC0124E030E084ED92E00E9486
:1058900027128CEF93E00E942E0DE0917903F09196
:1058A0007A03408151816281738122E030E084ED8E
:1058B00092E00E94271285EF93E00E942E0D409106
:1058C0009B0350919C0360919D0370919E0323E084
:1058D00030E084ED92E00E94271282EE93E00E9475
:1058E0009E10EFCE20919703309198034091990339
:1058F00050919A0360919B0370919C0380919D034A
:1059000090919E030E940B30181614F00C944E1FB9
:105910008091F3039091F403892B11F00C944E1FA6
:105920000E940E0A8091E9039091EA0301969093F8
:10593000EC038093EB0381E090E09093F403809379
:10594000F3038BEC93E00E949E100C944E1FC70152
:10595000B6010E94592F20917F033091800340911E
:105960008103509182030E940B3087FF02C00C9488
:10597000E21F4092FD035092FE036092FF0370927B
:10598000000483E08093750386E694E00E942E0D68
:105990004091390150913A0160913B0170913C0175
:1059A00022E030E084ED92E00E94271284E694E049
:1059B0000E942E0D89E594E00E942E0D4091EB058A
:1059C0005091EC056091ED057091EE0522E030E01C
:1059D00084ED92E00E94271287E594E00E942E0D4C
:1059E0008BE494E00E942E0D4091190450911A040A
:1059F00060911B0470911C0422E030E084ED92E081
:105A00000E94271289E494E00E942E0D80E494E025
:105A10000E942E0D8EE00E94D409BC0184ED92E01C
:105A20000E9428118EE394E00E942E0D86E394E0FC
:105A30000E942E0D40912104509122046091230474
:105A40007091240422E030E084ED92E00E9427125D
:105A500084E394E00E942E0D8CE294E00E942E0DCF
:105A600040912504509126046091270470912804E8
:105A700022E030E084ED92E00E9427128AE294E076
:105A80000E942E0D82E294E00E942E0D4091290486
:105A900050912A0460912B0470912C0422E030E094
:105AA00084ED92E00E9427120E9498101092030247
:105AB0001092FB010E94A4158091FC0180930202C8
:105AC0001092FD014AE050E06FE971E085E291E05B
:105AD0000E942C320E9431120C94E21F90580C94B8
